:0600000001308A000F2907
:10000800FB0003088301F2000408F3000A08F40067
:100018008A017C08F8007D08F70083018C10F00144
:10002800F101BB0803192D283A083F39A23E840084
:1000380083130008FC00FD01FC1BFD03F0070318F7
:10004800F10A7D08F1073808BA073708B907031815
:10005800BA0AC008031945283F083F39A23E840060
:1000680083130008FC00FD01FC1BFD03F0070318C7
:10007800F10A7D08F1073D08BF073C08BE070318D1
:10008800BF0AC50803195D2844083F39A23E840009
:1000980083130008FC00FD01FC1BFD03F007031897
:1000A800F10A7D08F1074208C4074108C30703188D
:1000B800C40ACA080319752849083F39A23E8400B2
:1000C80083130008FC00FD01FC1BFD03F007031867
:1000D800F10A7D08F1074708C9074608C807031849
:1000E800C90ACF0803198D284E083F39A23E84005B
:1000F80083130008FC00FD01FC1BFD03F007031837
:10010800F10A7D08F1074C08CE074B08CD07031804
:10011800CE0AD4080319A52853083F39A23E840003
:1001280083130008FC00FD01FC1BFD03F007031806
:10013800F10A7D08F1075108D3075008D2070318C0
:10014800D30AD9080319BD2858083F39A23E8400AC
:1001580083130008FC00FD01FC1BFD03F0070318D6
:10016800F10A7D08F1075608D8075508D70703187C
:10017800D80ADE080319D5285D083F39A23E840055
:1001880083130008FC00FD01FC1BFD03F0070318A6
:10019800F10A7D08F1075B08DD075A08DC07031838
:1001A800DD0A710DF10CF00C710DF10CF00C710DF4
:1001B800F10CF00C7008803EEF000310EF0C0310F8
:1001C800EF0C97121712F0189716701817166F0879
:1001D8009500A40B02290317101EF528930FF52884
:1001E8001012141EFA28970FFA281412181EFF2846
:1001F8009B0FFF281812C8300313A4007808FC00CE
:100208007708FD007308840074088A007208830068
:10021800FB0E7B0E09002030840072302221A030B2
:100228008400E23022218317103084001C30222100
:100238000A128A11732A04068001840A0406031D1F
:100248001F296400003483120313F500F61B3529B7
:10025800761B3D2976088A007508F50A0319F60AFF
:1002680082008313761883177508F50A840000083E
:1002780008000034143429343C344E345D346A3474
:1002880074347B347F347F347B3475346D3462341A
:100298005534483439342B341C340E340334FB348D
:1002A800F234EC34E834E634E734E934EE34F43448
:1002B800FA34003406340C341234163419341A342F
:1002C800193414340E340634FE34F234E434D6349B
:1002D800C734B834AA349D3493348A34843480348F
:1002E800803484348B349434A134B134C234D63459
:1002F800EB3400343734643476347F347F347F34DD
:100308007F347F347F347F347F347F347F347F344D
:1003180064343F341B340034003400340034003477
:10032800003400340034003400340034F834E53448
:10033800ED34003412341B340934003400340034F2
:100348000034003400340034003400340034003405
:10035800E634C1349C348034803480348034803432
:1003680080348034803480348034803489349B34C1
:10037800C7343F34403439342A3418340534F63419
:10038800EB34EB34F63407341F343A3454346B34DA
:1003980079347F3479346B3455343A341F34083423
:1003A800F634EB34EB34F634053418342A34393463
:1003B80040343F34343420340634E534C234A33472
:1003C8008C34803482348E34A234BB34D634EC344A
:1003D800FC340034FC34EE34D734BC34A3348E34CB
:1003E800823480348B34A234BF34E33404341F3471
:1003F8003334003426344934653478347F347D34DA
:10040800723464345234423436342E342C342C341E
:100418002D342E342E342934203412340434F0345C
:10042800DB34CC34C834CA34D834E934F934013430
:1004380002340034F234D834BC349F348C348034E1
:1004480085349B34B934E43406341D3430343934BB
:10045800393430341E340834E934C034A2348F348B
:100468008A349134A234B734CF34E434F534FE34CA
:1004780000348301850186018316850101308600D9
:1004880083128701831687018312880183168801E6
:10049800831289018316890183129F0183169F01A4
:1004A80083129F171F1783169F137E300317880028
:1004B8008901831203131F148030831681001C30B6
:1004C800831292003F30831692000C3083129700FB
:1004D80095018B010B1783168C14831208003D229B
:1004E8000A128A1137265130E3000330E400003045
:1004F8000A128A11A4250930E3000330E400003011
:100508000A128A11A4250730E3000530E400003000
:100518000A128A11A4250A128A118B17E1011830D0
:100528006002031C9A2A1030E0009C2A0430E0077D
:10053800600884008317001B801B922A001A801A07
:10054800A62A922A83016008023E840083170008C5
:100558008A006039830484030008840382000A1433
:100568000A1C0A10831A2038031B40388301E20052
:100578000408E1006008023E8400831762088000D6
:1005880084036108800084038015E21FD42A801147
:1005980080120A1CD02A8016620860398304080079
:1005A8008301922A8301E300043063020318E30104
:1005B800E4016308FE00FF010630FC000310FE0D95
:1005C800FF0DFC0BE22A6408FC00FD017E08FC0715
:1005D8000318FD0A7F08FD077D08013EF6007C0828
:1005E8003D3E0318F60A0A128A1127210A128A11B7
:1005F800FC006408A23E840083137C088000E40A9F
:100608004030640203180800DD2A8301A101210893
:10061800D622113084008330B5220030061C013008
:100628000A128A11D4250A128A11031C2F2B0430AE
:100638000A128A11EB250A128A118A110A12273026
:1006480084000330B62A06180D2BA10A04302102B3
:100658000318302B312BD42AA1012108D622373098
:1006680084008330B5220030061801300A128A113E
:10067800D4250A128A11031C502B04300A128A113D
:10068800EB250A128A118A110A124D3084000330B0
:10069800B62A061C332B0D2BD42A55308400833000
:1006A800B52283160313200801390A128A11D425AA
:1006B8000A128A11031C8B2B831621088312E3006C
:1006C8008316A0018312E801680863078400831376
:1006D8000008FC006808693E840083137C088000D9
:1006E800E80A05306802031C682BE501E8010530BB
:1006F800FD0068080A128A112B260A128A11043E84
:10070800373E84008313800803198C2B8E2BD42A40
:10071800E50ACD2B0530FD0068080A128A112B2640
:100728000A128A11043E373E840083130003E7004F
:100738000130FC0067080739FD00FD0AA52B0310EE
:10074800FC0DFD0BA32B7C08E6006708FC000310DA
:10075800FC0C0310FC0C03107C0CE400693E8400C4
:100768008313000866050319BF2B6408693E8400DB
:1007780066098005CD2BE50A0530FD0068080A12D8
:100788008A112B260A128A11043E373E84008313ED
:100798008001E80A08306802031C7B2BE601E60AA0
:1007A800E401E701E8012E2C6408693E8400831304
:1007B80000086605031DE22B252CE80A0530FD001C
:1007C80068080A128A112B260A128A11043E373E3B
:1007D800840083138008031DE12B0530FD006808A1
:1007E8000A128A112B26373E8400831305308A00AB
:1007F80067086707FD004925FC007D0A4925FD00BB
:100808007C088000840A7D0880000530FD006808A7
:100818000A128A112B26023E373E84008313800178
:10082800840A80010530FD0068080A128A112B2607
:100838000A128A11043E373E84008313670A800037
:10084800E503E70A0310E60DE608031D2E2CE60172
:10085800E60AE40A243067020318512BE508031D51
:10086800D82B512B8301E50006308A0065086507FF
:100878001E268400831306308A000314650D1E2685
:100888000A128A1180042010E70106308A006708DE
:10089800FC000310FC0D03107C0DFC007C0A0526EF
:1008A800EA0006308A006708FC000310FC0D0310FC
:1008B8007C0D023E0526EB0006308A006708FC0026
:1008C8000310FC0D03107C0D033E0526EC000630DA
:1008D8008A006708FC000310FC0D03107C0D052638
:1008E8000A128A11E9001F119F111F1269181F159A
:1008F800E9189F1569191F169F12E9199F168B137E
:100908006B08840083136C088004E8010000E80A7F
:1009180003306802031C8A2C9F148B179F18922C93
:100928006B08840083136C0980056A0884008313AC
:100938006C0980051E08E4006708313E84008313B3
:100948000008E800E30164020318AC2C3008E30057
:10095800E808031DBE2C6408FC000310FC0C0310FF
:10096800FC0C03107C0CE8006708313E8400680822
:10097800640280002F082A3E84000008E8002F083F
:10098800253E84000008E600680863063005031960
:10099800DA2C30086605031DD42C3008E604DC2C5C
:1009A8003008E80620143009E605DC2C3009E60595
:1009B8002F082A3E8400680880002F08253E8400FE
:1009C800660880000310B00DB008031DEE2CB001BE
:1009D800B00AAF0AE70A06306702031C492C063042
:1009E8008A00650865071E268400831306308A007E
:1009F8000314650D1E260A128A11FF3A800500307D
:100A0800201801300800003036240A128A11A20189
:100A1800132D2208313E840083138001A20A063078
:100A28002202031C0D2DAF01B001B00AA301A201DF
:100A38000630220203182E2D220836240A128A11A3
:100A48008313A3048A110A122C3084000530B62AB5
:100A5800A20A1C2DA30803193C2D5F108316201C25
:100A6800372D83125F148316A001A00A2A30A10033
:100A780001300A128A11EB250A128A118A110A1208
:100A8800483084000530B62A172D82076B340034AD
:100A980071340034783400347F34003487340034BF
:100AA8008F34003497340034A0340034AA3400342E
:100AB800B4340034BE340034CA340034D63400347C
:100AC800E3340034F0340034FE3400340E3401349E
:100AD8001E3401342F340134413401345434013488
:100AE800683401347D34013494340134AC34013435
:100AF800C6340134E1340134FD3401341C34023489
:100B08003C3402345E34023482340234A834023471
:100B1800D0340234FB3402342934033459340334D6
:100B28008C340334C2340334FB340334383404348F
:100B380078340434BC340434043405345034053473
:100B48008301DF10E5011030E6000330E10066089C
:100B580084008317001BC62D6517E515660A8400F7
:100B6800831763088000840A640880006608033ECF
:100B78008400831780016608840083176508800055
:100B8800DF1008000430E607E103610FAB2DDF1426
:100B9800080083010B0880398B138B1F0800D02DA8
:100BA80083120313EE00DF1260088400831703101A
:100BB800EE080319E52D8019031480150318001297
:100BC80008008011001E801E0800DF16E02D831229
:100BD8000313E30060088400831780120012E308FF
:100BE80003190800FF30E306E30A6008033E8400A7
:100BF8008317630880006008840083170016801537
:100C0800080082070134053485340234023405347F
:100C18008534043403340534853408340434053405
:100C280085342034053409348934013406340934D0
:100C38008934023482070834013408340234083411
:100C48000434083408340834103408342034FC00E0
:100C580000307D187C070310FC0D0310FD0CFD0807
:100C6800031908002D2E8301DF011830E000031757
:0A0C780010131413181303130800DF
:02400E00C220CE
:00000001FF
