:0600000001308A000F2907
:10000800FB0003088301F2000408F3000A08F40067
:100018008A017C08F8007D08F70083018C10F00144
:10002800F101BB0803192D283A083F39A23E840084
:1000380083130008FC00FD01FC1BFD03F0070318F7
:10004800F10A7D08F1073808BA073708B907031815
:10005800BA0AC008031945283F083F39A23E840060
:1000680083130008FC00FD01FC1BFD03F0070318C7
:10007800F10A7D08F1073D08BF073C08BE070318D1
:10008800BF0AC50803195D2844083F39A23E840009
:1000980083130008FC00FD01FC1BFD03F007031897
:1000A800F10A7D08F1074208C4074108C30703188D
:1000B800C40ACA080319752849083F39A23E8400B2
:1000C80083130008FC00FD01FC1BFD03F007031867
:1000D800F10A7D08F1074708C9074608C807031849
:1000E800C90ACF0803198D284E083F39A23E84005B
:1000F80083130008FC00FD01FC1BFD03F007031837
:10010800F10A7D08F1074C08CE074B08CD07031804
:10011800CE0AD4080319A52853083F39A23E840003
:1001280083130008FC00FD01FC1BFD03F007031806
:10013800F10A7D08F1075108D3075008D2070318C0
:10014800D30AD9080319BD2858083F39A23E8400AC
:1001580083130008FC00FD01FC1BFD03F0070318D6
:10016800F10A7D08F1075608D8075508D70703187C
:10017800D80ADE080319D5285D083F39A23E840055
:1001880083130008FC00FD01FC1BFD03F0070318A6
:10019800F10A7D08F1075B08DD075A08DC07031838
:1001A800DD0A710DF10CF00C710DF10CF00C710DF4
:1001B800F10CF00C7008803EEF000310EF0C0310F8
:1001C800EF0C97121712F0189716701817166F0879
:1001D8009500A10B02290317201EF528A30FF52867
:1001E8002012241EFA28A70FFA282412281EFF28F6
:1001F800AB0FFF282812C8300313A1007808FC00B1
:100208007708FD007308840074088A007208830068
:10021800FB0E7B0E09002030840072302121A030B3
:100228008400E23021218317203084002C302121E2
:100238008A116A2A04068001840A0406031D1E29FD
:100248006400003483120313F500F61B3429761B6F
:100258003C2976088A007508F50A0319F60A82000F
:100268008313761883177508F50A840000080800B8
:100278000034143429343C344E345D346A347434D4
:100288007B347F347F347B3475346D346234553439
:10029800483439342B341C340E340334FB34F234F0
:1002A800EC34E834E634E734E934EE34F434FA3440
:1002B800003406340C341234163419341A34193410
:1002C80014340E340634FE34F234E434D634C734ED
:1002D800B834AA349D3493348A34843480348034D6
:1002E80084348B349434A134B134C234D634EB34EE
:1002F80000343734643476347F347F347F347F3449
:100308007F347F347F347F347F347F347F34643468
:100318003F341B34003400340034003400340034DB
:1003280000340034003400340034F834E534ED345B
:10033800003412341B3409340034003400340034DF
:100348000034003400340034003400340034E6341F
:10035800C1349C3480348034803480348034803498
:100368008034803480348034803489349B34C7347A
:100378003F34403439342A3418340534F634EB34F5
:10038800EB34F63407341F343A3454346B3479344C
:100398007F3479346B3455343A341F340834F634A6
:1003A800EB34EB34F634053418342A343934403419
:1003B8003F34343420340634E534C234A3348C3426
:1003C800803482348E34A234BB34D634EC34FC34DA
:1003D8000034FC34EE34D734BC34A3348E34823445
:1003E80080348B34A234BF34E33404341F343334C0
:1003F800003426344934653478347F347D3472349B
:1004080064345234423436342E342C342C342D3463
:100418002E342E342934203412340434F034DB34AE
:10042800CC34C834CA34D834E934F9340134023409
:100438000034F234D834BC349F348C34803485345E
:100448009B34B934E43406341D3430343934393407
:1004580030341E340834E934C034A2348F348A343A
:100468009134A234B734CF34E434F534FE34003454
:100478008301850186010830831685008601831271
:1004880087018316870183129F0183169F011F131B
:100498009F161F1683129F13743003179E000C308B
:1004A8009F0003131F148030831681001C308312B1
:1004B80092003F30831692000C308312970095010A
:1004C8008B010B1783168C14831208003C228A11A7
:1004D80006263730E3000330E40000308A11732524
:1004E800F930E3000230E40000308A117325DC3073
:1004F800E3000430E40000308A1173258A118B1759
:10050800E10128306002031C8C2A2030E0008E2A8A
:100518000430E007600884008317001B801B842ACE
:10052800001A801A982A842A83016008023E8400EF
:10053800831700088A006039830484030008840351
:1005480082000A140A1C0A10831A2038031B403838
:100558008301E2000408E1006008023E840083177A
:100568006208800084036108800084038015E21F0C
:10057800C62A801180120A1CC22A801662086039B5
:10058800830408008301842A8301E30004306302A2
:100598000318E301E4016308FE00FF010630FC00D4
:1005A8000310FE0DFF0DFC0BD42A6408FC00FD01AE
:1005B8007E08FC070318FD0A7F08FD077D08013E39
:1005C800F6007C083C3E0318F60A8A1126218A1197
:1005D800FC006408A23E840083137C088000E40ABF
:1005E8004030640203180800CF2A8301A2012208C0
:1005F800C822013084008330A7220030851D0130D5
:100608008A11A3258A11031C1A2B04308A11BA25D2
:100618008A118A11123084000330A82A8519FD2A0C
:10062800A20A0430220203181B2B1C2BC62AA20183
:100638002208C822223084008330A722003085197E
:1006480001308A11A3258A11031C362B04308A1124
:10065800BA258A118A11333084000330A82A851DEF
:100668001E2BFD2AC62A3B3084008330A72283161E
:100678000313200801398A11A3258A11031C6D2B45
:10068800831621088312E3008316A0018312E80170
:1006980068086307840083130008FC006808693E43
:1006A800840083137C088000E80A05306802031C74
:1006B8004C2BE501E8010530FD0068088A11FA2590
:1006C8008A11043E373E84008313800803196E2B79
:1006D800702BC62AE50AAB2B0530FD0068088A1185
:1006E800FA258A11043E373E840083130003E7008D
:1006F8000130FC0067080739FD00FD0A852B03104F
:10070800FC0DFD0B832B7C08E6006708FC0003103A
:10071800FC0C0310FC0C03107C0CE400693E840004
:1007280083130008660503199F2B6408693E84003B
:1007380066098005AB2BE50A0530FD0068088A11BB
:10074800FA258A11043E373E840083138001E80AA3
:1007580008306802031C5F2BE601E60AE401E701A2
:10076800E801062C6408693E8400831300086605C6
:10077800031DC02BFD2BE80A0530FD0068088A110F
:10078800FA258A11043E373E840083138008031D2E
:10079800BF2B0530FD0068088A11FA25373E840012
:1007A800831305308A0067086707FD001825FC00D9
:1007B8007D0A1825FD007C088000840A7D088000D9
:1007C8000530FD0068088A11FA25023E373E84008C
:1007D80083138001840A80010530FD0068088A11AE
:1007E800FA258A11043E373E84008313670A800085
:1007F800E503E70A0310E60DE608031D062CE601EB
:10080800E60AE40A243067020318372BE508031DBB
:10081800B62B372B8301E50005308A00650865078C
:10082800ED258400831305308A000314650DED253A
:100838008A1180042010E70105308A006708FC004F
:100848000310FC0D03107C0DFC007C0AD425EA0083
:1008580005308A006708FC000310FC0D03107C0DAE
:10086800023ED425EB0005308A006708FC0003101F
:10087800FC0D03107C0D033ED425EC0005308A00E6
:100888006708FC000310FC0D03107C0DD4258A11A9
:10089800E9001F119F111F1269181F15E9189F15EC
:1008A80069191F169F12E9199F168B136B0884008C
:1008B80083136C088004E8010000E80A033068022A
:1008C800031C602C9F148B179F18682C6B088400DE
:1008D80083136C0980056A08840083136C098005FA
:1008E8001E08E4006708313E840083130008E8000E
:1008F800E30164020318822C3008E300E808031DB2
:10090800942C6408FC000310FC0C0310FC0C03106E
:100918007C0CE8006708313E8400680864028000A7
:100928002F082A3E84000008E8002F08253E84008E
:100938000008E6006808630630050319B02C300883
:100948006605031DAA2C3008E604B22C3008E80618
:1009580020143009E605B22C3009E6052F082A3E96
:100968008400680880002F08253E840066088000FF
:100978000310B00DB008031DC42CB001B00AAF0AB3
:10098800E70A06306702031C202C05308A00650838
:100998006507ED258400831305308A000314650D6F
:1009A800ED258A11FF3A8005003020180130080033
:1009B80000300E248A11A301E72C2308313E84005D
:1009C80083138001A30A06302302031CE12CAF0124
:1009D800B001B00AA401A301063023020318002DB8
:1009E80023080E248A118313A4048A11FE3084007C
:1009F8000430A82AA30AF02CA40803190E2D5F10AE
:100A08008316201C092D83125F148316A001A00AE7
:100A18002A30A10001308A11BA258A118A111730AB
:100A280084000530A82AEB2C82076B34003471341B
:100A38000034783400347F340034873400348F3401
:100A4800003497340034A0340034AA340034B43469
:100A58000034BE340034CA340034D6340034E334AD
:100A68000034F0340034FE3400340E3401341E34C3
:100A780001342F340134413401345434013468349E
:100A880001347D34013494340134AC340134C63437
:100A98000134E1340134FD3401341C3402343C3473
:100AA80002345E34023482340234A8340234D0343E
:100AB8000234FB34023429340334593403348C347B
:100AC8000334C2340334FB34033438340434783404
:100AD8000434BC34043404340534503405348301FC
:100AE800DF10E5012030E6000330E10066088400ED
:100AF8008317001B952D6517E515660A8400831773
:100B080063088000840A640880006608033E840045
:100B18008317800166088400831765088000DF104A
:100B280008000430E607E103610F7A2DDF1408009E
:100B380083010B0880398B138B1F08009F2D8312AC
:100B48000313EE00DF126008840083170310EE0819
:100B58000319B42D80190314801503180012080016
:100B68008011001E801E0800DF16AF2D83120313AC
:100B7800E30060088400831780120012E308031959
:100B88000800FF30E306E30A6008033E8400831789
:100B98006308800060088400831700168015080029
:100BA8008207023405348534043404340734873426
:100BB8000134053407348734023406340734873463
:100BC80004340A340634863410340B34063486343C
:100BD800203482070634403407341034073408348C
:100BE800073440340734803406348034FC00003045
:100BF8007D187C070310FC0D0310FD0CFD0803197C
:100C08000800FC2D8301DF012830E00003172013C2
:080C1800241328130313080044
:02400E00C230BE
:00000001FF
