:0600000001308A000F2907
:10000800FB0003088301F2000408F3000A08F40067
:100018008A017C08F8007D08F70083018C10F00144
:10002800F101BB0803192D283A083F39A23E840084
:1000380083130008FC00FD01FC1BFD03F0070318F7
:10004800F10A7D08F1073808BA073708B907031815
:10005800BA0AC008031945283F083F39A23E840060
:1000680083130008FC00FD01FC1BFD03F0070318C7
:10007800F10A7D08F1073D08BF073C08BE070318D1
:10008800BF0AC50803195D2844083F39A23E840009
:1000980083130008FC00FD01FC1BFD03F007031897
:1000A800F10A7D08F1074208C4074108C30703188D
:1000B800C40ACA080319752849083F39A23E8400B2
:1000C80083130008FC00FD01FC1BFD03F007031867
:1000D800F10A7D08F1074708C9074608C807031849
:1000E800C90ACF0803198D284E083F39A23E84005B
:1000F80083130008FC00FD01FC1BFD03F007031837
:10010800F10A7D08F1074C08CE074B08CD07031804
:10011800CE0AD4080319A52853083F39A23E840003
:1001280083130008FC00FD01FC1BFD03F007031806
:10013800F10A7D08F1075108D3075008D2070318C0
:10014800D30AD9080319BD2858083F39A23E8400AC
:1001580083130008FC00FD01FC1BFD03F0070318D6
:10016800F10A7D08F1075608D8075508D70703187C
:10017800D80ADE080319D5285D083F39A23E840055
:1001880083130008FC00FD01FC1BFD03F0070318A6
:10019800F10A7D08F1075B08DD075A08DC07031838
:1001A800DD0A710DF10CF00C710DF10CF00C710DF4
:1001B800F10CF00C7008803EEF000310EF0C0310F8
:1001C800EF0C97121712F0189716701817166F0879
:1001D8009500A10B02290317101EF528930FF52887
:1001E8001012141EFA28970FFA281412181EFF2846
:1001F8009B0FFF281812C8300313A1007808FC00D1
:100208007708FD007308840074088A007208830068
:10021800FB0E7B0E09002030840072302121A030B3
:100228008400E23021218317103084001C30212102
:100238008A11642A04068001840A0406031D1E2903
:100248006400003483120313F500F61B3429761B6F
:100258003C2976088A007508F50A0319F60A82000F
:100268008313761883177508F50A840000080800B8
:100278000034143429343C344E345D346A347434D4
:100288007B347F347F347B3475346D346234553439
:10029800483439342B341C340E340334FB34F234F0
:1002A800EC34E834E634E734E934EE34F434FA3440
:1002B800003406340C341234163419341A34193410
:1002C80014340E340634FE34F234E434D634C734ED
:1002D800B834AA349D3493348A34843480348034D6
:1002E80084348B349434A134B134C234D634EB34EE
:1002F80000343734643476347F347F347F347F3449
:100308007F347F347F347F347F347F347F34643468
:100318003F341B34003400340034003400340034DB
:1003280000340034003400340034F834E534ED345B
:10033800003412341B3409340034003400340034DF
:100348000034003400340034003400340034E6341F
:10035800C1349C3480348034803480348034803498
:100368008034803480348034803489349B34C7347A
:100378003F34403439342A3418340534F634EB34F5
:10038800EB34F63407341F343A3454346B3479344C
:100398007F3479346B3455343A341F340834F634A6
:1003A800EB34EB34F634053418342A343934403419
:1003B8003F34343420340634E534C234A3348C3426
:1003C800803482348E34A234BB34D634EC34FC34DA
:1003D8000034FC34EE34D734BC34A3348E34823445
:1003E80080348B34A234BF34E33404341F343334C0
:1003F800003426344934653478347F347D3472349B
:1004080064345234423436342E342C342C342D3463
:100418002E342E342934203412340434F034DB34AE
:10042800CC34C834CA34D834E934F9340134023409
:100438000034F234D834BC349F348C34803485345E
:100448009B34B934E43406341D3430343934393407
:1004580030341E340834E934C034A2348F348A343A
:100468009134A234B734CF34E434F534FE34003454
:100478008301850186012030831685008601831259
:100488009F0183169F011F1383129F171F1783163F
:100498009F135F309B0083121F14803083168100E6
:1004A8001C30831292003F30831692000C30831266
:1004B800970095018B010B1783168C148312080083
:1004C8003C228A11FD253130E3000330E40000307E
:1004D8008A116A25F330E3000230E40000308A1103
:1004E8006A25D330E3000430E40000308A116A251D
:1004F8008A118B17E10118306002031C862A10301C
:10050800E000882A0430E007600884008317001B95
:10051800801B7E2A001A801A922A7E2A830160088C
:10052800023E8400831700088A006039830484032C
:100538000008840382000A140A1C0A10831A20384F
:10054800031B40388301E2000408E1006008023E12
:100558008400831762088000840361088000840394
:100568008015E21FC02A801180120A1CBC2A80163E
:10057800620860398304080083017E2A8301E3004E
:10058800043063020318E301E4016308FE00FF017D
:100598000630FC000310FE0DFF0DFC0BCE2A64088C
:1005A800FC00FD017E08FC070318FD0A7F08FD0713
:1005B8007D08013EF6007C083C3E0318F60A8A11C5
:1005C80026218A11FC006408A23E840083137C085B
:1005D8008000E40A4030640203180800C92A830135
:1005E800A2012208C222FB3084008230A1220030FE
:1005F800851E01308A119A258A11031C142B043098
:100608008A11B1258A118A110C3084000330A22A7C
:10061800851AF72AA20A043022020318152B162B72
:10062800C02AA2012208C2221C3084008330A122E1
:100638000030851A01308A119A258A11031C302B43
:1006480004308A11B1258A118A112D3084000330B3
:10065800A22A851E182BF72AC02A35308400833039
:10066800A12283160313200801398A119A258A11B9
:10067800031C672B831621088312E3008316A0014D
:100688008312E80168086307840083130008FC00EC
:100698006808693E840083137C088000E80A0530F6
:1006A8006802031C462BE501E8010530FD006808D7
:1006B8008A11F1258A11043E373E8400831380088D
:1006C8000319682B6A2BC02AE50AA52B0530FD0003
:1006D80068088A11F1258A11043E373E8400831385
:1006E8000003E7000130FC0067080739FD00FD0A38
:1006F8007F2B0310FC0DFD0B7D2B7C08E6006708A3
:10070800FC000310FC0C0310FC0C03107C0CE40030
:10071800693E84008313000866050319992B640851
:10072800693E840066098005A52BE50A0530FD00B1
:1007380068088A11F1258A11043E373E8400831324
:100748008001E80A08306802031C592BE601E60A12
:10075800E401E701E801002C6408693E8400831382
:1007680000086605031DBA2BF72BE80A0530FD00C3
:1007780068088A11F1258A11043E373E84008313E4
:100788008008031DB92B0530FD0068088A11F12582
:10079800373E8400831305308A0067086707FD0029
:1007A8000F25FC007D0A0F25FD007C088000840AC7
:1007B8007D0880000530FD0068088A11F125023E99
:1007C800373E840083138001840A80010530FD00D0
:1007D80068088A11F1258A11043E373E8400831384
:1007E800670A8000E503E70A0310E60DE608031D23
:1007F800002CE601E60AE40A243067020318312BCC
:10080800E508031DB02B312B8301E50005308A0074
:1008180065086507E4258400831305308A000314FE
:10082800650DE4258A1180042010E70105308A004F
:100838006708FC000310FC0D03107C0DFC007C0A0B
:10084800CB25EA0005308A006708FC000310FC0D80
:1008580003107C0D023ECB25EB0005308A006708AB
:10086800FC000310FC0D03107C0D033ECB25EC00AF
:1008780005308A006708FC000310FC0D03107C0D8E
:10088800CB258A11E9009F111F129F1269189F1525
:10089800E9181F1669199F168B136B0884008313B8
:1008A8006C088004E8010000E80A03306802031CB1
:1008B800572C1F158B171F195F2C6B088400831387
:1008C8006C0980056A08840083136C0980051E087A
:1008D800E4006708313E840083130008E800E30160
:1008E80064020318792C3008E300E808031D8B2CF8
:1008F8006408FC000310FC0C0310FC0C03107C0CB7
:10090800E8006708313E84006808640280002F0808
:100918002A3E84000008E8002F08253E84000008CD
:10092800E6006808630630050319A72C3008660539
:10093800031DA12C3008E604A92C3008E806201471
:100948003009E605A92C3009E6052F082A3E84005F
:10095800680880002F08253E840066088000031080
:10096800B00DB008031DBB2CB001B00AAF0AE70AEE
:1009780006306702031C1A2C05308A0065086507D3
:10098800E4258400831305308A000314650DE425EB
:100998008A11FF3A80050030201801300800003025
:1009A80008248A11A301DE2C2308313E8400831316
:1009B8008001A30A06302302031CD82CAF01B00122
:1009C800B00AA401A301063023020318F72C230858
:1009D80008248A118313A4048A11F5308400043092
:1009E800A22AA30AE72CA4080319052D5F10831671
:1009F800201C002D83125F148316A001A00A2A3040
:100A0800A10001308A11B1258A118A110E308400A3
:100A18000530A22AE22C82076B340034713400348A
:100A2800783400347F340034873400348F34003411
:100A380097340034A0340034AA340034B434003479
:100A4800BE340034CA340034D6340034E3340034BD
:100A5800F0340034FE3400340E3401341E340134D2
:100A68002F340134413401345434013468340134AE
:100A78007D34013494340134AC340134C634013447
:100A8800E1340134FD3401341C3402343C34023482
:100A98005E34023482340234A8340234D03402344E
:100AA800FB34023429340334593403348C3403348A
:100AB800C2340334FB340334383404347834043413
:100AC800BC34043404340534503405348301DF1055
:100AD800E5011030E6000330E10066088400831762
:100AE800001B8C2D6517E515660A840083176308BB
:100AF8008000840A640880006608033E8400831727
:100B0800800166088400831765088000DF100800EC
:100B18000430E607E103610F712DDF14080083013B
:100B28000B0880398B138B1F0800962D8312031333
:100B3800EE00DF126008840083170310EE08031923
:100B4800AB2D8019031480150318001208008011BA
:100B5800001E801E0800DF16A62D83120313E30073
:100B680060088400831780120012E3080319080044
:100B7800FF30E306E30A6008033E84008317630836
:100B8800800060088400831700168015080082071B
:100B98000634063486348034003405348534013410
:100BA8000134053485340234023405348534043480
:100BB800033405348534083404340534853410345A
:100BC8008207063401340634023406340434063409
:100BD80010340634203406344034FC0000307D18CC
:100BE8007C070310FC0D0310FD0CFD080319080019
:100BF800F32D8301DF011830E000031710131413DD
:060C08001813031308009D
:04400E00022FFC3F42
:00000001FF
